:400000000010002011000000E9090000E909000008B500F0EBFCC04610B5184C23688022D20213432360182001F062FA2268144B13402360134A144B1A603022134B1A605A
:40004000103A134B1A60103A124B1A6080221206114B1A60114A124B1A60124A124B1A60124A134B1A600920124901F0E7F9092001F0CEF90022104B1A6010BD00010B40CE
:40008000FFFFFBFF0600008004010B400C020240140202401802024008010B40FE00008000000240FE0000C0400002401000008080000240011700000C020B4010B572B66A
:4000C000002410E0314863001A195200821891881B195B001A5AC31858880004104300F0E7FC0134E4B2012CECD92849081C0C30203100F0C3FC99231B04254A1360EE2196
:400100000902244A1160244A1360244A1360244A1360244A136080229205234B1A60234B197802220A431A70214802783C218A4328390A430270197816220A431A70212325
:400140001C4A1360C42189021B4A11601B4A136008331B4A13601B4A1360B3331A4A13601A4A136004331A4A1360D8210901194A1160194A1360DC3B184A1360184A13608D
:40018000FFF74AFF00F0BAFC10BDC0460C1D0000000001400C00014000500F4010500F4020500F4030500F4038500F4000700F4001700F40000004400800044018000440B2
:4001C00000010440180104400002044018020440000304400803044018030440000404401804044010B5064C2378002B07D1054B002B02D0044800E000BF0123237010BDAB
:40020000B801002000000000301A000008B5084B002B03D00748084900E000BF07480368002B00D108BD064B002BFBD09847F9E700000000301A0000BC010020C8000020BE
:400240000000000010B562B6002305E059000020414A88520133DBB20B2BF7D900F0CEFD00F004FE00F09EFE00F02CF900F0AEFC0028FBD1394B188801F018F9002409E0E5
:40028000201C00F0ABFCA300334AD318986198640134E4B20B2CF3D900F0E8FD78232E4AD35C012B04D100217733D15400F080FB002310E0284958009A008A18095E946CAB
:4002C000611A9164254C20180424005F41430912D1670133DBB20B2BECD900212C23204AD154002318E09A001B498A18D16F1B4A928B91420EDD002B01D00B2B05D1184829
:400300002C21425C0132425404E015482C21425C023242540133DBB20B2BE4D90F4B1A6A53100F492C20085C43430B639210992109028A1A934201DD094B1963084C6420BC
:40034000236B5843992101F09FFA606300F00AF800F07AF98AE7C046D4010020CC0000205402002038B5002416E00D4D2978201C00F096FD29780B4B1970201C00F096FD2A
:40038000094B1978201C00F097FD084B195D201C00F098FD0134E4B20B2CE6D938BDC046F1000020F0000020F20000208C02002010B50E4C201C00F0F9FE0D4800F0F6FEF6
:4003C0000C4800F0F3FE0C4800F0F0FE0B4800F0EDFE0B4800F0EAFE0A4800F0E7FE0A4800F0E4FE201C00F0E1FE10BDBC1A0000881A0000941A0000C01A00000C1B0000F3
:400400003C1B0000981B0000E41B0000F0B58BB0051C0E1C1A486B46021C13CA13C313CA13C313CA13C312681A600A2E00DD0A26002D03DA6D422D2000F0F2FD00240027D5
:4004400018E0ED1A0130C0B2012700E0002062B2930069465B58AB42F3DD012F05D0092C03D00A239B1B9A4202DB303000F0D8FD0134E4B263B2092BE8DD0BB0F0BDC046D7
:40048000601A000010B50B4800F090FE00240AE06300094AD05E0021FFF7B8FF074800F085FE0134E4B20B2CF2D9054800F07EFE10BDC046181C0000D40100207C1C000090
:4004C000241C000008B5054800F070FE044800F06DFEFFF76DFFFFF7D5FF08BD281C0000581C000070B5061C141C202900D92021092C00D909240D1C301C08410021FFF71A
:4005000085FF002C17D02E2000F08AFD0120002304E08200101840000133DBB25AB2A242F7DB20235A1B213BD3401E407043E84061B2FFF76BFF70BD10B5384B1B78012BC3
:400540005AD10022364B1A70344B5B88002B18D1344800F02BFE01240BE0334800F026FE201C0021FFF752FF304800F01FFE0134E4B20B2CF1D92E4800F018FE2D4800F0A3
:4005800015FE264B5B885B00254AD3180420185E0021FFF73BFF254800F008FE01240AE0A200254BD0580021FFF730FF1F4800F0FDFD0134E4B20B2CF2D9204B1868082110
:4005C0000122FFF78FFF194800F0F0FD1C4B186808210122FFF786FF164800F0E7FD0F4A538801339BB25380132B02D913220B4B5A800022094B1A70084B1B79012B0BD141
:40060000064C002363800F4800F0D0FD094800F0CDFD00232371237010BDC04698020020F4000020741C0000801C00007C1C0000881C0000241C0000500200208802002094
:4006400084020020981C000038B59F4B1B78012B2BD19E4800F0AAFD9D4D2B6818120021FFF7D4FE9B4C201C00F0A0FD2B789800C018400000120021FFF7C8FE964800F0C1
:4006800095FD964D2B6818120021FFF7BFFE201C00F08CFD2B789800C018400000120021FFF7B4FE8E4800F081FD874B1B78022B3DD10CE08B4800F079FD201C0021FFF7F5
:4006C000A5FE894800F072FD0134E4B200E000240B2CEFD900240BE0844800F067FD201C0021FFF793FE804800F060FD0134E4B20B2CF1D900240BE07D4800F057FD201C11
:400700000021FFF783FE784800F050FD0134E4B20B2CF1D9774800F049FD774800F046FD6F4800F043FD0322674B1A704AE0032B48D10BE0A200714BD0580021FFF766FECC
:40074000694800F033FD0134E4B200E000240B2CF0D900240AE0A200694BD0580021FFF755FE614800F022FD0134E4B20B2CF2D900240AE0A200634BD0580021FFF746FE7D
:40078000594800F013FD0134E4B20B2CF2D95E4B18780021FFF73AFE534C201C00F006FD4B4B186808210122FFF79CFE201C00F0FDFC4A4B186808210122FFF793FE4848E6
:4007C00000F0F4FC00F0DCFCC4B277E0201C00F027FC0D2C01D00A2C67D14C49CB88CB1800221A7208314A4801F017F9002806D10122484B1A703A4800F0D8FC4BE046483A
:400800004249083101F009F9002806D100222E4B1A70334800F0CAFC3DE040483B49083101F0FBF8002806D10222274B1A702C4800F0BCFC2FE03A483449083101F0EDF80E
:40084000002806D10122204B1A70254800F0AEFC21E02E4B1B7A002B06D101222B4B1A700022194B1A7016E02E482849083101F0D4F8002809D10122244B1A710022124BA5
:400880001A70174800F092FC05E0274800F08EFC134800F08BFC1D4B0022DA801A7200F06FFC0028FBD1002408E0184AD388D1180C720133D38000F063FCC4B2002C85D174
:4008C000FFF73AFE38BDC046F4000020AC1C000088020020B01C0000B41C000084020020241C0000BC1C00007C1C0000C01C0000C81C0000D01C0000881C0000EC010020FA
:400900001C020020500200208002002098020020DC1C00004C020020E01C0000E81C0000EC1C0000F41C0000FC1C0000F0B54F464646C0B4A1B00E1C8C181C4B9C422AD875
:40094000171C8046CC0B49040B0E994624024C44E4010020002519E0B44207D3BD4205D24246525D6946CA54013502E022786946CA540134013300E000237F2BECD94846F7
:40098000694600F081FC01239C46E144BD4203D20028F1D000E00120012801D90120404221B00CBC90469946F0BDC046FF7F000008B5002307E09900084A88585900084AD0
:4009C00088520133DBB20B2BF5D9FFF75BFD044804490622FFF7AAFF08BDC0461C020020D40100205C1A0000FEE7C04670B50F4E0F4D13E029686B68AC68002202E001C934
:400A000001C30432A242FAD1E868002202E0002102C304328242FAD11035013E002EE9D100F0C4FFFFF70EFCFEE7C04601000000301E000008B500230AE0032B03D89A0048
:400A40000A49505800E00A4899000A4A885001332F2BF2D9FFF732FB0022074B1A608022D205116801230B43136008BD00000000E909000000000020C0000020F0B50025C2
:400A8000002711E0BB00C658F3B2FF22964308E06A008A181478A419527822700135013BDBB2002BF4D10137042FEBD9F0BDC04608B50A1C002100F0A8FF08BD0C4B1B6802
:400AC000002803D080221206134301E05B005B08074A1360074B1B68002803D080229204134301E0044A1340024A13607047C04680031A4008010B40FFFFFFFD08B5012023
:400B0000FFF7DCFF08BDC04638B517480368DBB2164A13700F24A343191C154D2A780F2313400B43F02293431A1C2B78A34313430360104A104B1A60104A114B1A60114AB3
:400B40001168114B0B40C021C9000B4313600F2000F068FC0F200D4900F070FC0F20032100F07EFC38BDC04600FF08400C03002062F1FF0F0006000508000840C008A00133
:400B80000400084010000140FFF0FFFFD10E000008B500F03DFB00F01FFB0020002100F023FB0020002100F03BFB00F027FB00F009FB044A136804490B4313600F2000F02B
:400BC00027FC08BD0400084000100880024B1878012318407047C046C00200204000024B181880887047C046C0020020F8B5104F3C5C3818027B55005519EDB29200D6B2E0
:400C000000F024FBA4003B199C6922680F21B1408A43111C0422B2400A43DE6A33680721A9408B433360226000F014FBF8BDC0464C1D0000F8B519490C5C0B181E7BB200BF
:400C4000D2B275007519EDB2154B185CA300CB189F693B680F2191408B433B60022800D10020012801D1002700E0062700F0EEFAA4000A4B1C19E16A0B680722AA409343E8
:400C80001A1C3B1CAB4013430B6000F0E3FA216C0B680122B24093430B60F8BD4C1D00001403002010B5002403E0201CFFF7C2FF01340B2CF9D910BDF8B5061C234B5433F5
:400CC0001B5C234C9B001F593023E05C013880B2002100F089FA3123E05C013880B2002100F09EFA0F2000F09DFB1A4D2A68402313432B600F2000F08BFB0F2000F092FB84
:400D000015490A68154B1A40231C3433985D4034A35D1B04034313430B602C68104B1C40104B1C430F2000F073FB301CFFF75EFF00F08CFA061C2C60002000F07DFA0A4BC3
:400D40001F60301C00F086FAF8BDC0464C1D000020010020040008400800084000FF80FFFF1FDFFF200020000C00084008B50E4B1A6843000D49CB189A80FFF75BFF0F207C
:400D800000F050FB0A4A11680A4B0B40A02109020B431360084A1168084B0B4013600F2000F036FB08BDC0460C000840C002002004000840FF1FDFFF0800084000FF80FFBB
:400DC00003231840024B1A6840021043186070470400084008B5002303E00021064AD15401330B2BF9D9FFF78FFE0020FFF7E8FFFFF758FF08BDC0461403002008B5094B21
:400E00005B7F002B04D1FFF7E5FF0122054B5A77FFF7BEFE044A13688021C9030B43136008BDC046C002002004000840CA0807231940063B8B40191C835C194201D0012056
:400E400000E000207047C04610B5041C0134E4B20C2C06D004484C30211CFFF7E7FF0028F4D0201C10BDC0462001002010B50B4C00232370FF332377207FC0B2FFF7E4FF52
:400E80002077237FDBB20B2B07D8217801220A432270207FC0B2FFF70FFF10BDC00200203123014AD1547047200100203023014AD154704720010020014B343319547047AA
:400EC00020010020014B4033195470472001002010B50F2000F0A6FA01221E4B1A601E4B1878C0B2FFF742FF1C4B1B785BB2002B05DA1A4A137801218B43137026E0164C86
:400F00002078C0B2FFF7A0FF20702378DBB20B2B05D8114B1878C0B2FFF7CEFE16E00F4B1A7801218A431A701B785B060ED500220B4B1A7006E00B4AD15C0B4AD1540133DD
:400F4000074A1370064B1B78012BF4D90F2000F05FFA10BD14000840DC020020C0020020E0020020100300206C01002008B50B2000F04EFA08BDC04608B500F0F3F808BD35
:400F800008B500F085F808BD08B5054A1368802109060B431360FFF7E9FFFFF7EDFF08BD0000074008B5064B1B78002B04D1FFF7E7FF0122024B1A70FFF7E6FF08BDC04661
:400FC000E4020020094B1A68094B1B689A420BD0074B1B680133212B00D10023054AD05CC0B2034A136000E00020704770030020280300204C030020074B1B68074A1268ED
:40100000934203D3054A1068181A04E0034A10681B1A2133181C70477003002028030020144B1A68144B1B689A4208D1134B1B680F221340082B02D0114B186019E00D4B0A
:401040001A680132202A00D100220B4B1B689A42FBD002230B490B60C0B20B49885405490A600A4A1268134203D1084A11680B4313607047240300202003002008020740AB
:4010800040020740800F07402C030020880F074010B51D4A1D4B1A6000241D4B1C6001221C4B1A601C4B1D490B6007201C4908601C490C601C490A601C4A13601C4B1C6002
:4010C000043000F0AFF90B20032100F0C9F90B20184900F0B3F9184B1C60184B1C60184B1C60184B1C600422174B1A60174B1C60174B1C60174B1C60174B1C70174B1C6017
:40110000174B1C6010BDC0460B00000200000740400007404800074007000080000307400403074010030740440007400002074004020740A5170000880E0740C80E074044
:40114000480F0740080F0740C80F0740880F074070030020280300206D0300202403002020030020044A1168044B0B40902109040B4313607047C04600000140FFFF0FFF95
:4011800008B5FFF739FF002802D0FFF71BFF00E00020054B1A68D8239B001A4203D01A1C014B1A60002008BDC00F074038B5051C002402E0FFF734FF0134285D0028F9D1C3
:4011C00038BDC046034A1368802109060B4313607047C04600000240024A13685B005B081360704700000240034A13681B0C1B04184310607047C04600000240034A13682B
:40120000802109060B4313607047C04640000240024A13685B005B081360704740000240034A13681B0C1B04184310607047C04640000240000000000230800804D0C04621
:401240000138FDD1C046C046C0467047EFF3108072B6704780F310887047C046C046C046024B1A68024B1A600020704708010B40EC020020024B1A68024B1A60002070473D
:40128000EC02002008010B40F0B5A7B0002325932493FF2800D9A5E0002900D1A2E0009004A8802200F0A8FB022300200021002408E09A0002AD5259002A02D08918104376
:4012C0001C1C0133212BF4D9002903D1002803D1002502E0002500E00125002D06D0A30002AA9F58002202A95A5000E00027404B02937F2303933F4B02AA1A603E493F4A5F
:4013000011601B681B0F0A2B04D03A4B1B680F22134000E000232593259B002B64D1FFF795FF0190FFF79CFF2490259B002B15D1334A02920299009A12040A4302922D4A3A
:4013400002A911602F482D4908601268120F0A2A03D0284B1B680F2213402593259E002E36D1002D34D004A80021802200F04DFBA40002ABE7501E4B02937F2303931D4B32
:4013800002AA1A601C491D4A11601B681B0F0A2B04D0184B1B680F221A40161C2596259B002B15D1184A0292029A00990D0415430295104A02A911601448104908601268AD
:4013C000120F0A2A03D00B4B1B680F2213402593249B002B02D1FFF74DFF24900198FFF739FF01E004232593259827B0F0BDC046B6D7000008000040040000800400004092
:40140000B6D8000005000080B6D90000060000801F2318401E3B8340181C014B1860704700E100E01F2318401E3B8340181C014B1860704780E100E001BE704738B5041C35
:401440000D1C1F2802D90020FFF7F6FFA400034B9C4664442068256038BDC0464000002070B5041C0E1E032E02D90020FFF7E4FF1F2C02D90020FFF7DFFF03252540ED0028
:401480000635FFF7E3FEA408A400074B9C46644423680322AA409343AE40351C1D432560FFF7D8FE70BDC04600E400E010B5041C06E0084B1868FFF7BFFE074B9C4664446A
:4014C00080231B029C42F4D8024B58686043FFF7B3FE10BDA00100200080FFFF08B5034B1B7A5843FFF7A8FE08BDC046A0010020F0B557464E46C0B483B0041CFFF7A6FE85
:401500000190E71E2D2F74D83F4B1B78DBB2A34208D33E4B1B78DBB29A463D4B1B78DBB2994631E03B4B1B78DBB2A34208D33A4B1B78DBB29A46394B1B78DBB2994623E071
:40154000374B1B78DBB2A34208D3364B1B78DBB29A46354B1B78DBB2994615E0334B1B78DBB2A34208D3324B1B78DBB29A46314B1B78DBB2994607E02F4B1B78DBB29A465D
:401580002E4B1B78DBB299462D4BDE5D2F2E09D92A2C07D919222B4B1A600520FFF74CFE192503E0274B1D683F231D40AE4206D2234BDA5D234B1A600520FFF73DFE1F4B0F
:4015C0009C4664442378DBB21F4A13601F4B52461A601F4B4A461A600520FFF77FFFAE420AD9174BDA5D174B1A600520FFF724FE02E00020FFF720FF0198FFF72BFE03B0CD
:401600000CBC91469A46F0BDC0F1FF0FC1F1FF0FC2F1FF0FC3F1FF0FC4F1FF0FC5F1FF0FC6F1FF0FC7F1FF0FC8F1FF0FC9F1FF0FCAF1FF0FCBF1FF0FCCF1FF0FCDF1FF0FB1
:40164000DC1D00002CFF0B4028FF0B401CFF0B4020FF0B40034B1868C0231B02184000D00120704700010B4008B5FFF7EFFD044A1368C02109020B431360FFF7EBFD08BDE7
:4016800000010B4010B5FFF7E1FD08490A68084B1A408024E40122430A600A6813408022120213430B60FFF7D5FD10BD00010B40FF3FFFFF70B5061CFFF7C8FD041CFFF70C
:4016C000C9FF002803D0FFF7DDFF012500E000250848331C0340084A106808490840184310601368012D01D1FFF7BEFF201CFFF7B1FD70BD0404040010020B40FBFBFBFF86
:4017000010B5244B1B685B0715D5234B1B685B070ED5224B9969042001401F4C22688A4322609A6982439A61DB68002B00D098470420FFF7BFFF174B1B685B0518D5164B0D
:401740001B685B0510D5154B99698022D2001140114802688A4302609969114A0A409A611B69002B00D098478020C000FFF7A2FF084B1B685B030CD5074B1B685B0304D570
:40178000064B5B69002B00D098478020C002FFF791FF10BD10020B40B0010020F0020020FFFBFFFF08B5274B1B68002B00D09847254B1B685B071DD5244B1B680133212B08
:4017C00000D10023224A1268934205D1214B1B682022214B1A7006E01E4A1268D2B21F49CA541A4A13601E4B1B681B07E4D104221C4B1A601C4B1B689B0721D51B4B1A6860
:401800001B4B1B689A4213D0194B1B680133202B00D10023174AD25CD2B217490A60144A1360164B1B680F221340082BE6D104E0134A136802218B4313600222114B1A608C
:4018400008BDC046E8020020CC0F07407003002028030020400307406D0300204C03002008030740C00F07408C0F074024030020200300202C03002040020740080207400D
:40188000880F0740800F0740002243088B4274D303098B425FD3030A8B4244D3030B8B4228D3030C8B420DD3FF22090212BA030C8B4202D31212090265D0030B8B4219D391
:4018C00000E0090AC30B8B4201D3CB03C01A5241830B8B4201D38B03C01A5241430B8B4201D34B03C01A5241030B8B4201D30B03C01A5241C30A8B4201D3CB02C01A5241A5
:40190000830A8B4201D38B02C01A5241430A8B4201D34B02C01A5241030A8B4201D30B02C01A5241CDD2C3098B4201D3CB01C01A524183098B4201D38B01C01A52414309F8
:401940008B4201D34B01C01A524103098B4201D30B01C01A5241C3088B4201D3CB00C01A524183088B4201D38B00C01A524143088B4201D34B00C01A5241411A00D2014607
:40198000524110467047FFE701B5002000F00CF802BDC0460029F7D003B5FFF775FF0EBC4243891A1847C0467047C0460E4B70B500251E1C0D4CE41AA410A54204D0AB009E
:4019C000F35898470135F8E700F020FA084B00251E1C084CE41AA410A54204D0AB00F35898470135F8E770BD181E0000181E0000181E0000201E0000002310B5934203D0A4
:401A0000CC5CC4540133F9E710BD031C8218934202D019700133FAE7704702780B78002A03D0013001319A42F7D0D01A704700001000000000000000017A5200027C0E01C5
:401A40001B0C0D001000000018000000CEFFFFFF1400000000000000000000000000000000CA9A3B00E1F5058096980040420F00A086010010270000E803000064000000C5
:401A80000A00000001000000436F6D6D616E6473200A0D00202073746F70202D2053746F7073206F7574707574696E672064617461206F76657220554152542E0A0D0000E0
:401AC000202063616C202D2053746F72657320656D70747920636F6E7461696E65722073656E736F722076616C75657320746F20454550524F4D20666F722063616C696280
:401B0000726174696F6E2E0A0D00000020206261736963202D204F757470757473206C6971756964206C6576656C20696E206D6D20616E6420252E0A0D000000202063735C
:401B400076202D204F75747075747320696E7465726D65646961746520636F6D7075746174696F6E2076616C7565732061732077656C6C206173206C6971756964206C658B
:401B800076656C20696E2043535620666F726D61742E0A0D00000000202027456E74657227202D204F75747075747320746865206E65787420736574206F66206C65766583
:401BC0006C2076616C7565732066726F6D207468652073616D706C652061727261792E0A0D00000020207265736574202D20526573657473207468652073616D706C652005
:401C0000617272617920706F696E74657220746F203020252E0A0D00456D70747943616C3D0000000D0A00002D2D204C6971756964204C6576656C2053656E73696E672003
:401C40004578616D706C652050726F6A656374202D2D0A0D000000004353442031325258202D2056657273696F6E20312E30200A0D0000005072657365746D6D2C00000057
:401C800053656E44696666004C6576656C252C4C6576656C6D6D000052657365742054657374204C6576656C00000000253D00002E0000002020206D6D3D0000526177005E
:401CC000446966660000000050726F630000000053656E416374436E742C000063616C0073746F70000000006373760062617369630000007265736574000000436F6D6D55
:401D0000616E64204572726F7200000000300F40000400400F40000404300F4001310F4001330F4003420F4006430F4038803E4058045F011801B4016C407008DC03610257
:401D4000A102B448B502D802EC0800000202020101030202010300030403020305060607000500070000014004000140080001400C000140100001400800044008010440F3
:401D80000802044008030440080404400000044000010440000204400003044000040440000102030405060708090A0B100000000800000004000000080000002000000052
:401DC00040000000400000008000000001000000200000000100000080000000030405060708090A0B0C0E0F101112131415161718191B1C1D1E1F20212223252627282932
:401E00002A2B2E2F3031323334350000F8B5C046F8BC08BC9E4670470D020000350A0000F8B5C046F8BC08BC9E467047E5010000401E0000C8000020F0000000C00100000A
:401E400000000000F4010000D0010001000100010001000100010001000100010001C0012C010000E80D00000909050001000000FBFF00000A0014001E00280032003C00CB
:401E8000460050005A0064006E00780082008C0096009900A00000000000FF3F0000FF3F0000FF3F0000FF3F0000FF3F0000FF3F0000FF3F0000FF3F0000FF3F0000FF3F9F
:401EC0000000FF3F0000FF3F0A010000325050505050505050505050005050505050505050505050FF0F000008020440080204400802044008010440080104400803044068
:401F00000802044008020440080104400803044008000440080304400000E02EC05D00001800000000366E01040404000000000000000000000000000000000000000000DA
:401F40000000000000000000000000000000000000000000000000000000000000000000000000000000000000000000000000000000000000000000000000000000000061
:401F80000000000000000000000000000000000000000000000000000000000000000000000000000000000000000000000000000000000000000000000000000000000021
:401FC00000000000000000000000000000000000000000000000000000000000000000000000000000000000000000000000000000000000000000000000000000000000E1
:4020000000000000000000000000000000000000000000000000000000000000000000000000000000000000000000000000000000000000000000000000000000000000A0
:0200000490303A
:02000000DCF929
:0200000490402A
:200000000000000000000000000000000000000000000000000000000000000000000000E0
:0200000490501A
:0C000000000204C81193110104D1EE8C21
:0200000490600A
:0100000001FE
:00000001FF