:400000000010002011000000AD090000AD09000008B500F0CDFCC04610B5184C23688022D20213432360182001F03EFA2268144B13402360134A144B1A603022134B1A6014
:40004000103A134B1A60103A124B1A6080221206114B1A60114A124B1A60124A124B1A60124A134B1A600920124901F0C3F9092001F0AAF90022104B1A6010BD00010B4016
:40008000FFFFFBFF0600008004010B400C020240140202401802024008010B40FE00008000000240FE0000C0400002401000008080000240B91600000C020B4010B572B6B3
:4000C000002410E02D4863001A195200821891881B195B001A5AC31858880004104300F0C9FC0134E4B2012CECD92449081C0C30203100F0A5FC99231B04214A1360EE21DE
:400100000902204A1160204A1360204A1360204A1360802292051F4B1A601F4B197802220A431A701D4802783C218A4328390A430270197816220A431A702023184A13604E
:40014000C4218902174A1160174A1360083B174A1360C0218902164A1160164A1360D8221201154B1A600423144A1360144A1360FFF752FF00F0A4FC10BDC046981E000032
:40018000000001400C00014000500F4020500F4030500F4038500F4000700F4001700F400000044008000440180004400002044008020440180204400803044000040440B9
:4001C0001804044010B5064C2378002B07D1054B002B02D0044800E000BF0123237010BD4001002000000000C81B000008B5084B002B03D00748084900E000BF07480368E3
:40020000002B00D108BD064B002BFBD09847F9E700000000C81B000044010020C80000200000000038B562B6002306E05A004349505A434950520133DBB2012BF6D900F04F
:40024000BBFD00F0F1FD00F08BFE00F02DF900F09FFC0028FBD13B4B188801F003F9002409E0201C00F09CFCA300354AD3185860D8600134E4B2012CF3D900F0D5FD304BF8
:400280001B7D012B04D100222D4B1A7500F072FB00231CE01A1C2A4C590098002018615EC468611AC16004D59900254841180020C860910022484118520022488218042056
:4002C000125EC868424312128A610133DBB2012BE0D91B4BDB69002B02DC0122184BDA61174C184D0823E95EA3699C466144A161E36918026423584301F032FB0A22AB5E06
:400300005843FF2101F02CFB2422A35E1B02C0182062C823DB01984201DD1A1C2262084C236AD800C31818011818642101F088FAA06200F009F800F079F988E7F41B00004B
:400340005C010020CC00002038B5002416E00D4D2978201C00F082FD29780B4B1970201C00F082FD094B1978201C00F083FD084B195D201C00F084FD0134E4B2012CE6D97E
:4003800038BDC046D9000020D8000020DA0000208801002010B50E4C201C00F0E5FE0D4800F0E2FE0C4800F0DFFE0C4800F0DCFE0B4800F0D9FE0B4800F0D6FE0A4800F0A9
:4003C000D3FE0A4800F0D0FE201C00F0CDFE10BD541C0000201C00002C1C0000581C0000A41C0000D41C0000301D00007C1D0000F0B58BB0051C0E1C1A486B46021C13CA21
:4004000013C313CA13C313CA13C312681A600A2E00DD0A26002D03DA6D422D2000F0DEFD0024002718E0ED1A0130C0B2012700E0002062B2930069465B58AB42F3DD012F6B
:4004400005D0092C03D00A239B1B9A4202DB303000F0C4FD0134E4B263B2092BE8DD0BB0F0BDC046F81B000010B50B4800F07CFE00240AE06300094AD05E0021FFF7B8FF56
:40048000074800F071FE0134E4B2012CF2D9054800F06AFE10BDC046B01D00005C010020141E0000BC1D000008B5054800F05CFE044800F059FEFFF76DFFFFF7D5FF08BD26
:4004C000C01D0000F01D000070B5061C141C202900D92021092C00D909240D1C301C08410021FFF785FF002C17D02E2000F076FD0120002304E08200101840000133DBB20D
:400500005AB2A242F7DB20235A1B213BD3401E407043E84061B2FFF76BFF70BD10B5384B1B78012B5AD10022364B1A70344B5B88002B18D1344800F017FE00240BE0334819
:4005400000F012FE201C0021FFF752FF304800F00BFE0134E4B2012CF1D92E4800F004FE2D4800F001FE264B5B885B00254AD3180420185E0021FFF73BFF254800F0F4FD96
:4005800000240AE0A200254BD0580021FFF730FF1F4800F0E9FD0134E4B2012CF2D9204B186808210122FFF78FFF194800F0DCFD1C4B186808210122FFF786FF164800F0CC
:4005C000D3FD0F4A538801339BB25380132B02D913220B4B5A800022094B1A70084B1B79012B0BD1064C002363800F4800F0BCFD094800F0B9FD00232371237010BDC046CA
:400600008C010020DC0000200C1E0000181E0000141E0000201E0000BC1D0000740100207C01002084010020301E000038B5994B1B78012B2BD1984800F096FD974D2B68DD
:4006400018120021FFF7D4FE954C201C00F08CFD2B789800C018400000120021FFF7C8FE904800F081FD904D2B6818120021FFF7BFFE201C00F078FD2B789800C0184000E7
:4006800000120021FFF7B4FE884800F06DFD814B1B78022B3AD10CE0854800F065FD201C0021FFF7A5FE834800F05EFD0134E4B200E00024012CEFD900240BE07E4800F0FE
:4006C00053FD201C0021FFF793FE7A4800F04CFD0134E4B2012CF1D900240BE0774800F043FD201C0021FFF783FE724800F03CFD0134E4B2012CF1D9714800F035FD6B4804
:4007000000F032FD0322634B1A7041E0032B3FD10BE0A2006B4BD0580021FFF769FE654800F022FD0134E4B200E00024012CF0D900240AE0A200644BD0580021FFF758FE80
:400740005C4800F011FD0134E4B2012CF2D900240AE0A2005D4BD0580021FFF749FE554800F002FD0134E4B2012CF2D94B4B186808210122FFF7A8FE4E4800F0F5FC4A4BDD
:40078000186808210122FFF79FFE484800F0ECFC00F0D4FCC4B277E0201C00F01FFC0D2C01D00A2C67D14A49CB88CB1800221A720831484801F0FDF9002806D10122464B4C
:4007C0001A703A4800F0D0FC4BE044484049083101F0EFF9002806D100222E4B1A70334800F0C2FC3DE03E483949083101F0E1F9002806D10222274B1A702C4800F0B4FC36
:400800002FE038483249083101F0D3F9002806D10122204B1A70254800F0A6FC21E02C4B1B7A002B06D10122294B1A700022194B1A7016E02C482649083101F0BAF9002884
:4008400009D10122224B1A710022124B1A70174800F08AFC05E0254800F086FC134800F083FC1B4B0022DA801A7200F067FC0028FBD1002408E0164AD388D1180C72013300
:40088000D38000F05BFCC4B2002C85D1FFF746FE38BDC046DC000020441E00007C010020481E00004C1E000084010020BC1D0000541E0000141E0000581E0000601E000090
:4008C000201E00006001002068010020740100208C010020681E0000700100206C1E0000741E0000781E0000801E0000881E0000F0B54F464646C0B4A1B00E1C8C181C4BA1
:400900009C422AD8171C8046CC0B49040B0E994624024C44E4010020002519E0B44207D3BD4205D24246525D6946CA54013502E022786946CA540134013300E000237F2BAA
:40094000ECD94846694600F07BFC01239C46E144BD4203D20028F1D000E00120012801D90120404221B00CBC90469946F0BDC046FF7F000008B5002307E09900084A88586E
:400980005900084A88520133DBB2012BF5D9FFF76BFD044804490622FFF7AAFF08BDC046680100205C010020F41B0000FEE7C04670B50F4E0F4D13E029686B68AC68002203
:4009C00002E001C901C30432A242FAD1E868002202E0002102C304328242FAD11035013E002EE9D101F0AEF8FFF71CFCFEE7C046010000007C1F000008B500230AE0032B13
:400A000003D89A000A49505800E00A4899000A4A885001332F2BF2D9FFF750FB0022074B1A608022D205116801230B43136008BD00000000AD09000000000020C000002075
:400A4000F0B50025002711E0BB00C658F3B2FF22964308E06A008A181478A419527822700135013BDBB2002BF4D10137042FEBD9F0BDC04608B50A1C002101F092F808BD6E
:400A80000C4B1B68002803D080221206134301E05B005B08074A1360074B1B68002803D080229204134301E0044A1340024A13607047C04680031A4008010B40FFFFFFFD67
:400AC00008B50120FFF7DCFF08BDC04638B517480368DBB2164A13700F24A343191C154D2A780F2313400B43F02293431A1C2B78A34313430360104A104B1A60104A114BEB
:400B00001A60114A1168114B0B40C021C9000B4313600F2000F062FC0F200D4900F06AFC0F20032100F078FC38BDC04600FF0840EC01002062F1FF0F00060005080008403B
:400B4000C008A0010400084010000140FFF0FFFF8D0E000008B500F039FB00F01BFB0020002100F01FFB0020002100F037FB00F023FB00F005FB044A136804490B4313607D
:400B80000F2000F021FC08BD0400084000100880024B1878012318407047C046B40100204000024B181880887047C046B4010020F8B5104F3C5C3818027955005519EDB23D
:400BC0009200D6B200F01EFBA4003B199C6822680F21B1408A43111C0422B2400A43DE6933680721A9408B433360226000F00EFBF8BDC046D81E0000F8B519490C5C0B18B2
:400C00001E79B200D2B275007519EDB2154B185CA300CB189F683B680F2191408B433B60022800D10020012801D1002700E0062700F0E8FAA4000A4B1C19E1690B680722A7
:400C4000AA4093431A1C3B1CAB4013430B6000F0DDFA216B0B680122B24093430B60F8BDD81E0000F401002010B5002403E0201CFFF7C2FF0134012CF9D910BDF8B5061C10
:400C8000214B44331B5C214C9B001F59207A013880B2002100F086FA607A013880B2002100F09CFA0F2000F099FB194D2A68402313432B600F2000F087FB0F2000F08EFBA0
:400CC00014490A68144B1A40A419207B237C1B04034313430B602C68104B1C40104B1C430F2000F071FB301CFFF762FF00F08AFA061C2C60002000F07BFA0A4B1F60301C55
:400D000000F084FAF8BDC046D81E000008010020040008400800084000FF80FFFF1FDFFF200020000C00084008B50E4B1A6843000D49CB189A80FFF75FFF0F2000F04EFBD7
:400D40000A4A11680A4B0B40A02109020B431360084A1168084B0B4013600F2000F034FB08BDC0460C000840B401002004000840FF1FDFFF0800084000FF80FF03231840C7
:400D8000024B1A6840021043186070470400084008B5002303E00021064AD1540133012BF9D9FFF793FE0020FFF7E8FFFFF75CFF08BDC046F401002008B5094B5B7A002B03
:400DC00004D1FFF7E5FF0122054B5A72FFF7C2FE044A13688021C9030B43136008BDC046B401002004000840CA0807231940063B8B40191C835C194201D0012000E00020AA
:400E00007047C04610B5041C0134E4B2022C06D004481430211CFFF7E7FF0028F4D0201C10BDC0460801002010B50B4C00232370FF332372207AC0B2FFF7E4FF2072237AC7
:400E4000DBB2012B07D8217801220A432270207AC0B2FFF713FF10BDB4010020014B59727047C04608010020014B19727047C04608010020014B18180173704708010020FF
:400E8000014B1818017470470801002010B50F2000F0A4FA01221E4B1A601E4B1878C0B2FFF742FF1C4B1B785BB2002B05DA1A4A137801218B43137026E0164C2078C0B252
:400EC000FFF7A0FF20702378DBB2012B05D8114B1878C0B2FFF7D2FE16E00F4B1A7801218A431A701B785B060ED500220B4B1A7006E00B4AD15C0B4AD1540133074A13705A
:400F0000064B1B78002BF4D00F2000F05DFA10BD14000840BC010020B4010020C0010020F00100201C01002008B50B2000F04CFA08BDC04608B500F0F3F808BD08B500F06B
:400F400085F808BD08B5054A1368802109060B431360FFF7E9FFFFF7EDFF08BD0000074008B5064B1B78002B04D1FFF7E7FF0122024B1A70FFF7E6FF08BDC046C401002069
:400F8000094B1A68094B1B689A420BD0074B1B680133212B00D10023054AD05CC0B2034A136000E000207047480200200002002024020020074B1B68074A1268934203D303
:400FC000054A1068181A04E0034A10681B1A2133181C70474802002000020020144B1A68144B1B689A4208D1134B1B680F221340082B02D0114B186019E00D4B1A68013293
:40100000202A00D100220B4B1B689A42FBD002230B490B60C0B20B49885405490A600A4A1268134203D1084A11680B4313607047FC010020F801002008020740400207406B
:40104000800F074004020020880F074010B51D4A1D4B1A6000241D4B1C6001221C4B1A601C4B1D490B6007201C4908601C490C601C490A601C4A13601C4B1C60043000F0D0
:40108000ADF90B20032100F0C7F90B20184900F0B1F9184B1C60184B1C60184B1C60184B1C600422174B1A60174B1C60174B1C60174B1C60174B1C70174B1C60174B1C60A3
:4010C00010BDC0460B000002000007404000074048000740070000800003074004030740100307404400074000020740040207405D170000880E0740C80E0740480F07400D
:40110000080F0740C80F0740880F0740480200200002002045020020FC010020F8010020044A1168044B0B40902109040B4313607047C04600000140FFFF0FFF08B5FFF78F
:4011400039FF002802D0FFF71BFF00E00020054B1A68D8239B001A4203D01A1C014B1A60002008BDC00F074038B5051C002402E0FFF734FF0134285D0028F9D138BDC046BB
:40118000034A1368802109060B4313607047C04600000240024A13685B005B081360704700000240034A13681B0C1B04184310607047C04600000240034A136880210906B6
:4011C0000B4313607047C04640000240024A13685B005B081360704740000240034A13681B0C1B04184310607047C046400002400230800804D0C0460138FDD1C046C046FF
:40120000C0467047EFF3108072B6704780F310887047C046C046C046024B1A68024B1A600020704708010B40CC010020024B1A68024B1A6000207047CC01002008010B4070
:40124000F0B5A7B0002325932493FF2800D9A5E0002900D1A2E0009004A8802200F098FC022300200021002408E09A0002AD5259002A02D0891810431C1C0133212BF4D9A2
:40128000002903D1002803D1002502E0002500E00125002D06D0A30002AA9F58002202A95A5000E00027404B02937F2303933F4B02AA1A603E493F4A11601B681B0F0A2BD1
:4012C00004D03A4B1B680F22134000E000232593259B002B64D1FFF795FF0190FFF79CFF2490259B002B15D1334A02920299009A12040A4302922D4A02A911602F482D49C5
:4013000008601268120F0A2A03D0284B1B680F2213402593259E002E36D1002D34D004A80021802200F03DFCA40002ABE7501E4B02937F2303931D4B02AA1A601C491D4A98
:4013400011601B681B0F0A2B04D0184B1B680F221A40161C2596259B002B15D1184A0292029A00990D0415430295104A02A911601448104908601268120F0A2A03D00B4B61
:401380001B680F2213402593249B002B02D1FFF74DFF24900198FFF739FF01E004232593259827B0F0BDC046B6D70000080000400400008004000040B6D80000050000803D
:4013C000B6D90000060000801F2318401E3B8340181C014B1860704700E100E01F2318401E3B8340181C014B1860704780E100E001BE704738B5041C0D1C1F2802D900201E
:40140000FFF7F6FFA400034B9C4664442068256038BDC0464000002070B5041C0E1E032E02D90020FFF7E4FF1F2C02D90020FFF7DFFF03252540ED000635FFF7E3FEA40815
:40144000A400074B9C46644423680322AA409343AE40351C1D432560FFF7D8FE70BDC04600E400E010B5041C06E0084B1868FFF7BFFE074B9C46644480231B029C42F4D8FE
:40148000024B58686043FFF7B3FE10BD280100200080FFFF08B5034B1B7A5843FFF7A8FE08BDC04628010020F0B557464E46C0B483B0041CFFF7A6FE0190E71E2D2F74D8E1
:4014C0003F4B1B78DBB2A34208D33E4B1B78DBB29A463D4B1B78DBB2994631E03B4B1B78DBB2A34208D33A4B1B78DBB29A46394B1B78DBB2994623E0374B1B78DBB2A34269
:4015000008D3364B1B78DBB29A46354B1B78DBB2994615E0334B1B78DBB2A34208D3324B1B78DBB29A46314B1B78DBB2994607E02F4B1B78DBB29A462E4B1B78DBB29946AC
:401540002D4BDE5D2F2E09D92A2C07D919222B4B1A600520FFF74CFE192503E0274B1D683F231D40AE4206D2234BDA5D234B1A600520FFF73DFE1F4B9C4664442378DBB215
:401580001F4A13601F4B52461A601F4B4A461A600520FFF77FFFAE420AD9174BDA5D174B1A600520FFF724FE02E00020FFF720FF0198FFF72BFE03B00CBC91469A46F0BD93
:4015C000C0F1FF0FC1F1FF0FC2F1FF0FC3F1FF0FC4F1FF0FC5F1FF0FC6F1FF0FC7F1FF0FC8F1FF0FC9F1FF0FCAF1FF0FCBF1FF0FCCF1FF0FCDF1FF0F281F00002CFF0B4061
:4016000028FF0B401CFF0B4020FF0B40034B1868C0231B02184000D00120704700010B4008B5FFF7EFFD044A1368C02109020B431360FFF7EBFD08BD00010B4010B5FFF78F
:40164000E1FD08490A68084B1A408024E40122430A600A6813408022120213430B60FFF7D5FD10BD00010B40FF3FFFFF70B5061CFFF7C8FD041CFFF7C9FF002803D0FFF79A
:40168000DDFF012500E000250848331C0340084A106808490840184310601368012D01D1FFF7BEFF201CFFF7B1FD70BD0404040010020B40FBFBFBFF10B5244B1B685B0766
:4016C00015D5234B1B685B070ED5224B9969042001401F4C22688A4322609A6982439A61DB68002B00D098470420FFF7BFFF174B1B685B0518D5164B1B685B0510D5154B3F
:4017000099698022D2001140114802688A4302609969114A0A409A611B69002B00D098478020C000FFF7A2FF084B1B685B030CD5074B1B685B0304D5064B5B69002B00D0C8
:4017400098478020C002FFF791FF10BD10020B4038010020D0010020FFFBFFFF08B5274B1B68002B00D09847254B1B685B071DD5244B1B680133212B00D10023224A126817
:40178000934205D1214B1B682022214B1A7006E01E4A1268D2B21F49CA541A4A13601E4B1B681B07E4D104221C4B1A601C4B1B689B0721D51B4B1A681B4B1B689A4213D0D2
:4017C000194B1B680133202B00D10023174AD25CD2B217490A60144A1360164B1B680F221340082BE6D104E0134A136802218B4313600222114B1A6008BDC046C8010020C1
:40180000CC0F0740480200200002002040030740450200202402002008030740C00F07408C0F0740FC010020F8010020040200204002074008020740880F0740800F07408F
:40184000002243088B4274D303098B425FD3030A8B4244D3030B8B4228D3030C8B420DD3FF22090212BA030C8B4202D31212090265D0030B8B4219D300E0090AC30B8B42F7
:4018800001D3CB03C01A5241830B8B4201D38B03C01A5241430B8B4201D34B03C01A5241030B8B4201D30B03C01A5241C30A8B4201D3CB02C01A5241830A8B4201D38B02B8
:4018C000C01A5241430A8B4201D34B02C01A5241030A8B4201D30B02C01A5241CDD2C3098B4201D3CB01C01A524183098B4201D38B01C01A524143098B4201D34B01C01A2D
:40190000524103098B4201D30B01C01A5241C3088B4201D3CB00C01A524183088B4201D38B00C01A524143088B4201D34B00C01A5241411A00D20146524110467047FFE788
:4019400001B5002000F0FCF802BDC0460029F7D003B5FFF775FF0EBC4243891A1847C04603460B437FD4002243088B4274D303098B425FD3030A8B4244D3030B8B4228D342
:40198000030C8B420DD3FF22090212BA030C8B4202D31212090265D0030B8B4219D300E0090AC30B8B4201D3CB03C01A5241830B8B4201D38B03C01A5241430B8B4201D3E1
:4019C0004B03C01A5241030B8B4201D30B03C01A5241C30A8B4201D3CB02C01A5241830A8B4201D38B02C01A5241430A8B4201D34B02C01A5241030A8B4201D30B02C01AF5
:401A00005241CDD2C3098B4201D3CB01C01A524183098B4201D38B01C01A524143098B4201D34B01C01A524103098B4201D30B01C01A5241C3088B4201D3CB00C01A524138
:401A400083088B4201D38B00C01A524143088B4201D34B00C01A5241411A00D201465241104670475DE0CA0F00D04942031000D34042534000229C4603098B422DD3030A34
:401A80008B4212D3FC22890112BA030A8B420CD3890192118B4208D3890192118B4204D389013AD0921100E08909C3098B4201D3CB01C01A524183098B4201D38B01C01ABF
:401AC000524143098B4201D34B01C01A524103098B4201D30B01C01A5241C3088B4201D3CB00C01A524183088B4201D38B00C01A5241D9D243088B4201D34B00C01A524170
:401B0000411A00D20146634652415B10104601D34042002B00D54942704763465B1000D3404201B5002000F00BF802BD0029F8D003B5FFF715FF0EBC4243891A1847C046A1
:401B40007047C0460E4B70B500251E1C0D4CE41AA410A54204D0AB00F35898470135F8E700F0FAF9084B00251E1C084CE41AA410A54204D0AB00F35898470135F8E770BDAE
:401B8000641F0000641F0000641F00006C1F0000002310B5934203D0CC5CC4540133F9E710BD031C8218934202D019700133FAE7704702780B78002A03D0013001319A4272
:401BC000F7D0D01A704700001000000000000000017A5200027C0E011B0C0D001000000018000000CEFFFFFF1400000000000000000000000000000000CA9A3B00E1F5055E
:401C00008096980040420F00A086010010270000E8030000640000000A00000001000000436F6D6D616E6473200A0D00202073746F70202D2053746F7073206F757470755B
:401C400074696E672064617461206F76657220554152542E0A0D0000202063616C202D2053746F72657320656D70747920636F6E7461696E65722073656E736F722076613B
:401C80006C75657320746F20454550524F4D20666F722063616C6962726174696F6E2E0A0D00000020206261736963202D204F757470757473206C6971756964206C65766A
:401CC000656C20696E206D6D20616E6420252E0A0D0000002020637376202D204F75747075747320696E7465726D65646961746520636F6D7075746174696F6E2076616CF7
:401D00007565732061732077656C6C206173206C6971756964206C6576656C20696E2043535620666F726D61742E0A0D00000000202027456E74657227202D204F75747028
:401D400075747320746865206E65787420736574206F66206C6576656C2076616C7565732066726F6D207468652073616D706C652061727261792E0A0D000000202072650C
:401D8000736574202D20526573657473207468652073616D706C6520617272617920706F696E74657220746F203020252E0A0D00456D70747943616C3D0000000D0A000041
:401DC0002D2D204C6971756964204C6576656C2053656E73696E67204578616D706C652050726F6A656374202D2D0A0D0000000043534420325258202D2056657273696FC3
:401E00006E20312E30200A0D000000005072657365746D6D2C00000053656E44696666004C6576656C252C4C6576656C6D6D000052657365742054657374204C6576656C40
:401E400000000000253D00002E0000002020206D6D3D000052617700446966660000000050726F630000000063616C0073746F7000000000637376006261736963000000E0
:401E80007265736574000000436F6D6D616E64204572726F7200000000300F40000400400F40000404300F4001310F4001330F4003420F4006430F4038803E4058045F015B
:401EC0001801B4016C407008DC036102A102B448B502D802EC08000002020000040300000000014004000140080001400C000140100001400800044008010440080204402B
:401F000008030440080404400000044000010440000204400003044000040440000100001000000008000000030405060708090A0B0C0E0F101112131415161718191B1C1F
:401F40001D1E1F2021222325262728292A2B2E2F3031323334350000F8B5C046F8BC08BC9E467047ED010000F9090000F8B5C046F8BC08BC9E467047C5010000901F0000EC
:401F8000C800002078000000100100000000000000000000F4010000000100016400000108080F0001000000FBFF00000A0014001E00280032003C00460050005A00640014
:401FC0006E00780082008C0096009900A00000000000FF3F0000FF3F0A01000050500000505000000300000008020440080204400000E02EC05D00001800000000366E01D0
:402000000404040000000000000000000000000000000000000000000000000000000000000000000000000000000000000000000000000000000000000000000000000094
:402040000000000000000000000000000000000000000000000000000000000000000000000000000000000000000000000000000000000000000000000000000000000060
:402080000000000000000000000000000000000000000000000000000000000000000000000000000000000000000000000000000000000000000000000000000000000020
:4020C00000000000000000000000000000000000000000000000000000000000000000000000000000000000000000000000000000000000000000000000000000000000E0
:40210000000000000000000000000000000000000000000000000000000000000000000000000000000000000000000000000000000000000000000000000000000000009F
:0200000490303A
:020000004C0EA4
:0200000490402A
:200000000000000000000000000000000000000000000000000000000000000000000000E0
:0200000490501A
:0C000000000204C81193110104D25DA19C
:0200000490600A
:0100000001FE
:00000001FF